{
  "contractName": "SolnSquareVerifier",
  "abi": [
    {
      "constant": true,
      "inputs": [
        {
          "name": "interfaceId",
          "type": "bytes4"
        }
      ],
      "name": "supportsInterface",
      "outputs": [
        {
          "name": "",
          "type": "bool"
        }
      ],
      "payable": false,
      "stateMutability": "view",
      "type": "function"
    },
    {
      "constant": true,
      "inputs": [],
      "name": "name",
      "outputs": [
        {
          "name": "",
          "type": "string"
        }
      ],
      "payable": false,
      "stateMutability": "view",
      "type": "function"
    },
    {
      "constant": true,
      "inputs": [
        {
          "name": "tokenId",
          "type": "uint256"
        }
      ],
      "name": "getApproved",
      "outputs": [
        {
          "name": "",
          "type": "address"
        }
      ],
      "payable": false,
      "stateMutability": "view",
      "type": "function"
    },
    {
      "constant": false,
      "inputs": [
        {
          "name": "to",
          "type": "address"
        },
        {
          "name": "tokenId",
          "type": "uint256"
        }
      ],
      "name": "approve",
      "outputs": [],
      "payable": false,
      "stateMutability": "nonpayable",
      "type": "function"
    },
    {
      "constant": true,
      "inputs": [],
      "name": "totalSupply",
      "outputs": [
        {
          "name": "",
          "type": "uint256"
        }
      ],
      "payable": false,
      "stateMutability": "view",
      "type": "function"
    },
    {
      "constant": false,
      "inputs": [
        {
          "name": "from",
          "type": "address"
        },
        {
          "name": "to",
          "type": "address"
        },
        {
          "name": "tokenId",
          "type": "uint256"
        }
      ],
      "name": "transferFrom",
      "outputs": [],
      "payable": false,
      "stateMutability": "nonpayable",
      "type": "function"
    },
    {
      "constant": true,
      "inputs": [
        {
          "name": "_myid",
          "type": "bytes32"
        },
        {
          "name": "_result",
          "type": "string"
        }
      ],
      "name": "__callback",
      "outputs": [],
      "payable": false,
      "stateMutability": "pure",
      "type": "function"
    },
    {
      "constant": true,
      "inputs": [
        {
          "name": "owner",
          "type": "address"
        },
        {
          "name": "index",
          "type": "uint256"
        }
      ],
      "name": "tokenOfOwnerByIndex",
      "outputs": [
        {
          "name": "",
          "type": "uint256"
        }
      ],
      "payable": false,
      "stateMutability": "view",
      "type": "function"
    },
    {
      "constant": true,
      "inputs": [
        {
          "name": "_myid",
          "type": "bytes32"
        },
        {
          "name": "_result",
          "type": "string"
        },
        {
          "name": "_proof",
          "type": "bytes"
        }
      ],
      "name": "__callback",
      "outputs": [],
      "payable": false,
      "stateMutability": "pure",
      "type": "function"
    },
    {
      "constant": false,
      "inputs": [],
      "name": "unpause",
      "outputs": [],
      "payable": false,
      "stateMutability": "nonpayable",
      "type": "function"
    },
    {
      "constant": false,
      "inputs": [
        {
          "name": "from",
          "type": "address"
        },
        {
          "name": "to",
          "type": "address"
        },
        {
          "name": "tokenId",
          "type": "uint256"
        }
      ],
      "name": "safeTransferFrom",
      "outputs": [],
      "payable": false,
      "stateMutability": "nonpayable",
      "type": "function"
    },
    {
      "constant": true,
      "inputs": [
        {
          "name": "index",
          "type": "uint256"
        }
      ],
      "name": "tokenByIndex",
      "outputs": [
        {
          "name": "",
          "type": "uint256"
        }
      ],
      "payable": false,
      "stateMutability": "view",
      "type": "function"
    },
    {
      "constant": true,
      "inputs": [],
      "name": "paused",
      "outputs": [
        {
          "name": "",
          "type": "bool"
        }
      ],
      "payable": false,
      "stateMutability": "view",
      "type": "function"
    },
    {
      "constant": false,
      "inputs": [
        {
          "name": "a",
          "type": "uint256[2]"
        },
        {
          "name": "b",
          "type": "uint256[2][2]"
        },
        {
          "name": "c",
          "type": "uint256[2]"
        },
        {
          "name": "input",
          "type": "uint256[2]"
        }
      ],
      "name": "verifyTx",
      "outputs": [
        {
          "name": "r",
          "type": "bool"
        }
      ],
      "payable": false,
      "stateMutability": "nonpayable",
      "type": "function"
    },
    {
      "constant": true,
      "inputs": [
        {
          "name": "tokenId",
          "type": "uint256"
        }
      ],
      "name": "ownerOf",
      "outputs": [
        {
          "name": "",
          "type": "address"
        }
      ],
      "payable": false,
      "stateMutability": "view",
      "type": "function"
    },
    {
      "constant": true,
      "inputs": [
        {
          "name": "owner",
          "type": "address"
        }
      ],
      "name": "balanceOf",
      "outputs": [
        {
          "name": "",
          "type": "uint256"
        }
      ],
      "payable": false,
      "stateMutability": "view",
      "type": "function"
    },
    {
      "constant": false,
      "inputs": [],
      "name": "renounceOwnership",
      "outputs": [],
      "payable": false,
      "stateMutability": "nonpayable",
      "type": "function"
    },
    {
      "constant": false,
      "inputs": [],
      "name": "pause",
      "outputs": [],
      "payable": false,
      "stateMutability": "nonpayable",
      "type": "function"
    },
    {
      "constant": true,
      "inputs": [],
      "name": "owner",
      "outputs": [
        {
          "name": "",
          "type": "address"
        }
      ],
      "payable": false,
      "stateMutability": "view",
      "type": "function"
    },
    {
      "constant": true,
      "inputs": [],
      "name": "isOwner",
      "outputs": [
        {
          "name": "",
          "type": "bool"
        }
      ],
      "payable": false,
      "stateMutability": "view",
      "type": "function"
    },
    {
      "constant": true,
      "inputs": [],
      "name": "symbol",
      "outputs": [
        {
          "name": "",
          "type": "string"
        }
      ],
      "payable": false,
      "stateMutability": "view",
      "type": "function"
    },
    {
      "constant": false,
      "inputs": [
        {
          "name": "to",
          "type": "address"
        },
        {
          "name": "approved",
          "type": "bool"
        }
      ],
      "name": "setApprovalForAll",
      "outputs": [],
      "payable": false,
      "stateMutability": "nonpayable",
      "type": "function"
    },
    {
      "constant": false,
      "inputs": [
        {
          "name": "from",
          "type": "address"
        },
        {
          "name": "to",
          "type": "address"
        },
        {
          "name": "tokenId",
          "type": "uint256"
        },
        {
          "name": "_data",
          "type": "bytes"
        }
      ],
      "name": "safeTransferFrom",
      "outputs": [],
      "payable": false,
      "stateMutability": "nonpayable",
      "type": "function"
    },
    {
      "constant": true,
      "inputs": [
        {
          "name": "tokenId",
          "type": "uint256"
        }
      ],
      "name": "tokenURI",
      "outputs": [
        {
          "name": "",
          "type": "string"
        }
      ],
      "payable": false,
      "stateMutability": "view",
      "type": "function"
    },
    {
      "constant": true,
      "inputs": [],
      "name": "baseTokenURI",
      "outputs": [
        {
          "name": "",
          "type": "string"
        }
      ],
      "payable": false,
      "stateMutability": "view",
      "type": "function"
    },
    {
      "constant": true,
      "inputs": [
        {
          "name": "owner",
          "type": "address"
        },
        {
          "name": "operator",
          "type": "address"
        }
      ],
      "name": "isApprovedForAll",
      "outputs": [
        {
          "name": "",
          "type": "bool"
        }
      ],
      "payable": false,
      "stateMutability": "view",
      "type": "function"
    },
    {
      "constant": false,
      "inputs": [
        {
          "name": "newOwner",
          "type": "address"
        }
      ],
      "name": "transferOwnership",
      "outputs": [],
      "payable": false,
      "stateMutability": "nonpayable",
      "type": "function"
    },
    {
      "inputs": [
        {
          "name": "name",
          "type": "string"
        },
        {
          "name": "symbol",
          "type": "string"
        }
      ],
      "payable": false,
      "stateMutability": "nonpayable",
      "type": "constructor"
    },
    {
      "anonymous": false,
      "inputs": [
        {
          "indexed": false,
          "name": "solutionAddress",
          "type": "address"
        }
      ],
      "name": "SolutionAdded",
      "type": "event"
    },
    {
      "anonymous": false,
      "inputs": [
        {
          "indexed": false,
          "name": "s",
          "type": "string"
        }
      ],
      "name": "Verified",
      "type": "event"
    },
    {
      "anonymous": false,
      "inputs": [
        {
          "indexed": true,
          "name": "from",
          "type": "address"
        },
        {
          "indexed": true,
          "name": "to",
          "type": "address"
        },
        {
          "indexed": true,
          "name": "tokenId",
          "type": "uint256"
        }
      ],
      "name": "Transfer",
      "type": "event"
    },
    {
      "anonymous": false,
      "inputs": [
        {
          "indexed": true,
          "name": "owner",
          "type": "address"
        },
        {
          "indexed": true,
          "name": "approved",
          "type": "address"
        },
        {
          "indexed": true,
          "name": "tokenId",
          "type": "uint256"
        }
      ],
      "name": "Approval",
      "type": "event"
    },
    {
      "anonymous": false,
      "inputs": [
        {
          "indexed": true,
          "name": "owner",
          "type": "address"
        },
        {
          "indexed": true,
          "name": "operator",
          "type": "address"
        },
        {
          "indexed": false,
          "name": "approved",
          "type": "bool"
        }
      ],
      "name": "ApprovalForAll",
      "type": "event"
    },
    {
      "anonymous": false,
      "inputs": [
        {
          "indexed": false,
          "name": "account",
          "type": "address"
        }
      ],
      "name": "Paused",
      "type": "event"
    },
    {
      "anonymous": false,
      "inputs": [
        {
          "indexed": false,
          "name": "account",
          "type": "address"
        }
      ],
      "name": "Unpaused",
      "type": "event"
    },
    {
      "anonymous": false,
      "inputs": [
        {
          "indexed": true,
          "name": "previousOwner",
          "type": "address"
        },
        {
          "indexed": true,
          "name": "newOwner",
          "type": "address"
        }
      ],
      "name": "OwnershipTransferred",
      "type": "event"
    },
    {
      "constant": false,
      "inputs": [
        {
          "name": "a",
          "type": "uint256[2]"
        },
        {
          "name": "b",
          "type": "uint256[2][2]"
        },
        {
          "name": "c",
          "type": "uint256[2]"
        },
        {
          "name": "input",
          "type": "uint256[2]"
        }
      ],
      "name": "addSolution",
      "outputs": [],
      "payable": false,
      "stateMutability": "nonpayable",
      "type": "function"
    },
    {
      "constant": false,
      "inputs": [
        {
          "name": "to",
          "type": "address"
        },
        {
          "name": "tokenId",
          "type": "uint256"
        }
      ],
      "name": "mint",
      "outputs": [],
      "payable": false,
      "stateMutability": "nonpayable",
      "type": "function"
    }
  ],
  "bytecode": "0x60806040523480156200001157600080fd5b5060405162004eb338038062004eb3833981018060405260408110156200003757600080fd5b8101908080516401000000008111156200005057600080fd5b828101905060208101848111156200006757600080fd5b81518560018202830111640100000000821117156200008557600080fd5b50509291906020018051640100000000811115620000a257600080fd5b82810190506020810184811115620000b957600080fd5b8151856001820283011164010000000082111715620000d757600080fd5b5050929190505050818181816040518060600160405280603f815260200162004e74603f9139336000806101000a81548173ffffffffffffffffffffffffffffffffffffffff021916908373ffffffffffffffffffffffffffffffffffffffff1602179055506000809054906101000a900473ffffffffffffffffffffffffffffffffffffffff1673ffffffffffffffffffffffffffffffffffffffff16600073ffffffffffffffffffffffffffffffffffffffff167f8be0079c531659141344cd1fd0a4f28419497f9722a3daafe3b4186f6b6457e060405160405180910390a360008060146101000a81548160ff021916908315150217905550620001eb6301ffc9a760e01b6200028b60201b60201c565b620002036380ac58cd60e01b6200028b60201b60201c565b6200021b63780e9d6360e01b6200028b60201b60201c565b82600f9080519060200190620002339291906200032b565b5081601090805190602001906200024c9291906200032b565b508060119080519060200190620002659291906200032b565b506200027e635b5e139f60e01b6200028b60201b60201c565b50505050505050620003da565b63ffffffff60e01b817bffffffffffffffffffffffffffffffffffffffffffffffffffffffff19161415620002bf57600080fd5b6001806000837bffffffffffffffffffffffffffffffffffffffffffffffffffffffff19167bffffffffffffffffffffffffffffffffffffffffffffffffffffffff1916815260200190815260200160002060006101000a81548160ff02191690831515021790555050565b828054600181600116156101000203166002900490600052602060002090601f016020900481019282601f106200036e57805160ff19168380011785556200039f565b828001600101855582156200039f579182015b828111156200039e57825182559160200191906001019062000381565b5b509050620003ae9190620003b2565b5090565b620003d791905b80821115620003d3576000816000905550600101620003b9565b5090565b90565b614a8a80620003ea6000396000f3fe608060405234801561001057600080fd5b50600436106101cf5760003560e01c8063621e9ec01161010457806395d89b41116100a2578063d547cfb711610071578063d547cfb714610cef578063e985e9c514610d72578063f2fde38b14610dee578063f76b443114610e32576101cf565b806395d89b4114610a70578063a22cb46514610af3578063b88d4fde14610b43578063c87b56dd14610c48576101cf565b8063715018a6116100de578063715018a6146109f05780638456cb59146109fa5780638da5cb5b14610a045780638f32d59b14610a4e576101cf565b8063621e9ec0146107b15780636352211e1461092a57806370a0823114610998576101cf565b80632f745c591161017157806340c10f191161014b57806340c10f191461069157806342842e0e146106df5780634f6ccce71461074d5780635c975abb1461078f576101cf565b80632f745c59146104c957806338bbfa501461052b5780633f4ba83a14610687576101cf565b8063095ea7b3116101ad578063095ea7b31461032a57806318160ddd1461037857806323b872dd1461039657806327dc297e14610404576101cf565b806301ffc9a7146101d457806306fdde0314610239578063081812fc146102bc575b600080fd5b61021f600480360360208110156101ea57600080fd5b8101908080357bffffffffffffffffffffffffffffffffffffffffffffffffffffffff19169060200190929190505050610f93565b604051808215151515815260200191505060405180910390f35b610241610ffb565b6040518080602001828103825283818151815260200191508051906020019080838360005b83811015610281578082015181840152602081019050610266565b50505050905090810190601f1680156102ae5780820380516001836020036101000a031916815260200191505b509250505060405180910390f35b6102e8600480360360208110156102d257600080fd5b810190808035906020019092919050505061109d565b604051808273ffffffffffffffffffffffffffffffffffffffff1673ffffffffffffffffffffffffffffffffffffffff16815260200191505060405180910390f35b6103766004803603604081101561034057600080fd5b81019080803573ffffffffffffffffffffffffffffffffffffffff16906020019092919080359060200190929190505050611138565b005b610380611311565b6040518082815260200191505060405180910390f35b610402600480360360608110156103ac57600080fd5b81019080803573ffffffffffffffffffffffffffffffffffffffff169060200190929190803573ffffffffffffffffffffffffffffffffffffffff1690602001909291908035906020019092919050505061131e565b005b6104c76004803603604081101561041a57600080fd5b81019080803590602001909291908035906020019064010000000081111561044157600080fd5b82018360208201111561045357600080fd5b8035906020019184600183028401116401000000008311171561047557600080fd5b91908080601f016020809104026020016040519081016040528093929190818152602001838380828437600081840152601f19601f820116905080830192505050505050509192919290505050611341565b005b610515600480360360408110156104df57600080fd5b81019080803573ffffffffffffffffffffffffffffffffffffffff16906020019092919080359060200190929190505050611384565b6040518082815260200191505060405180910390f35b6106856004803603606081101561054157600080fd5b81019080803590602001909291908035906020019064010000000081111561056857600080fd5b82018360208201111561057a57600080fd5b8035906020019184600183028401116401000000008311171561059c57600080fd5b91908080601f016020809104026020016040519081016040528093929190818152602001838380828437600081840152601f19601f820116905080830192505050505050509192919290803590602001906401000000008111156105ff57600080fd5b82018360208201111561061157600080fd5b8035906020019184600183028401116401000000008311171561063357600080fd5b91908080601f016020809104026020016040519081016040528093929190818152602001838380828437600081840152601f19601f8201169050808301925050505050505091929192905050506113f7565b005b61068f6113fc565b005b6106dd600480360360408110156106a757600080fd5b81019080803573ffffffffffffffffffffffffffffffffffffffff16906020019092919080359060200190929190505050611577565b005b61074b600480360360608110156106f557600080fd5b81019080803573ffffffffffffffffffffffffffffffffffffffff169060200190929190803573ffffffffffffffffffffffffffffffffffffffff169060200190929190803590602001909291905050506116df565b005b6107796004803603602081101561076357600080fd5b81019080803590602001909291905050506116ff565b6040518082815260200191505060405180910390f35b610797611733565b604051808215151515815260200191505060405180910390f35b61091060048036036101408110156107c857600080fd5b8101908080604001906002806020026040519081016040528092919082600260200280828437600081840152601f19601f82011690508083019250505050505091929192908060800190600280602002604051908101604052809291906000905b8282101561087d578382604002016002806020026040519081016040528092919082600260200280828437600081840152601f19601f82011690508083019250505050505081526020019060010190610829565b50505050919291929080604001906002806020026040519081016040528092919082600260200280828437600081840152601f19601f820116905080830192505050505050919291929080604001906002806020026040519081016040528092919082600260200280828437600081840152601f19601f8201169050808301925050505050509192919290505050611749565b604051808215151515815260200191505060405180910390f35b6109566004803603602081101561094057600080fd5b8101908080359060200190929190505050611990565b604051808273ffffffffffffffffffffffffffffffffffffffff1673ffffffffffffffffffffffffffffffffffffffff16815260200191505060405180910390f35b6109da600480360360208110156109ae57600080fd5b81019080803573ffffffffffffffffffffffffffffffffffffffff169060200190929190505050611a58565b6040518082815260200191505060405180910390f35b6109f8611b2d565b005b610a02611c66565b005b610a0c611de3565b604051808273ffffffffffffffffffffffffffffffffffffffff1673ffffffffffffffffffffffffffffffffffffffff16815260200191505060405180910390f35b610a56611e0c565b604051808215151515815260200191505060405180910390f35b610a78611e63565b6040518080602001828103825283818151815260200191508051906020019080838360005b83811015610ab8578082015181840152602081019050610a9d565b50505050905090810190601f168015610ae55780820380516001836020036101000a031916815260200191505b509250505060405180910390f35b610b4160048036036040811015610b0957600080fd5b81019080803573ffffffffffffffffffffffffffffffffffffffff169060200190929190803515159060200190929190505050611f05565b005b610c4660048036036080811015610b5957600080fd5b81019080803573ffffffffffffffffffffffffffffffffffffffff169060200190929190803573ffffffffffffffffffffffffffffffffffffffff1690602001909291908035906020019092919080359060200190640100000000811115610bc057600080fd5b820183602082011115610bd257600080fd5b80359060200191846001830284011164010000000083111715610bf457600080fd5b91908080601f016020809104026020016040519081016040528093929190818152602001838380828437600081840152601f19601f82011690508083019250505050505050919291929050505061203f565b005b610c7460048036036020811015610c5e57600080fd5b8101908080359060200190929190505050612065565b6040518080602001828103825283818151815260200191508051906020019080838360005b83811015610cb4578082015181840152602081019050610c99565b50505050905090810190601f168015610ce15780820380516001836020036101000a031916815260200191505b509250505060405180910390f35b610cf7612178565b6040518080602001828103825283818151815260200191508051906020019080838360005b83811015610d37578082015181840152602081019050610d1c565b50505050905090810190601f168015610d645780820380516001836020036101000a031916815260200191505b509250505060405180910390f35b610dd460048036036040811015610d8857600080fd5b81019080803573ffffffffffffffffffffffffffffffffffffffff169060200190929190803573ffffffffffffffffffffffffffffffffffffffff16906020019092919050505061221a565b604051808215151515815260200191505060405180910390f35b610e3060048036036020811015610e0457600080fd5b81019080803573ffffffffffffffffffffffffffffffffffffffff1690602001909291905050506122ae565b005b610f916004803603610140811015610e4957600080fd5b8101908080604001906002806020026040519081016040528092919082600260200280828437600081840152601f19601f82011690508083019250505050505091929192908060800190600280602002604051908101604052809291906000905b82821015610efe578382604002016002806020026040519081016040528092919082600260200280828437600081840152601f19601f82011690508083019250505050505081526020019060010190610eaa565b50505050919291929080604001906002806020026040519081016040528092919082600260200280828437600081840152601f19601f820116905080830192505050505050919291929080604001906002806020026040519081016040528092919082600260200280828437600081840152601f19601f8201169050808301925050505050509192919290505050612334565b005b600060016000837bffffffffffffffffffffffffffffffffffffffffffffffffffffffff19167bffffffffffffffffffffffffffffffffffffffffffffffffffffffff1916815260200190815260200160002060009054906101000a900460ff169050919050565b6060600f8054600181600116156101000203166002900480601f0160208091040260200160405190810160405280929190818152602001828054600181600116156101000203166002900480156110935780601f1061106857610100808354040283529160200191611093565b820191906000526020600020905b81548152906001019060200180831161107657829003601f168201915b5050505050905090565b60006110a88261267c565b6110fd576040517f08c379a000000000000000000000000000000000000000000000000000000000815260040180806020018281038252602c81526020018061498e602c913960400191505060405180910390fd5b6003600083815260200190815260200160002060009054906101000a900473ffffffffffffffffffffffffffffffffffffffff169050919050565b600061114382611990565b90508073ffffffffffffffffffffffffffffffffffffffff168373ffffffffffffffffffffffffffffffffffffffff1614156111ca576040517f08c379a0000000000000000000000000000000000000000000000000000000008152600401808060200182810382526021815260200180614a3e6021913960400191505060405180910390fd5b8073ffffffffffffffffffffffffffffffffffffffff163373ffffffffffffffffffffffffffffffffffffffff16148061120a5750611209813361221a565b5b61125f576040517f08c379a00000000000000000000000000000000000000000000000000000000081526004018080602001828103825260388152602001806148e16038913960400191505060405180910390fd5b826003600084815260200190815260200160002060006101000a81548173ffffffffffffffffffffffffffffffffffffffff021916908373ffffffffffffffffffffffffffffffffffffffff160217905550818373ffffffffffffffffffffffffffffffffffffffff168273ffffffffffffffffffffffffffffffffffffffff167f8c5be1e5ebec7d5bd14f71427d1e84f3dd0314c0f7b2291e5b200ac8c7c3b92560405160405180910390a4505050565b6000600880549050905090565b61132833826126ee565b61133157600080fd5b61133c838383612783565b505050565b611380828260006040519080825280601f01601f19166020018201604052801561137a5781602001600182028038833980820191505090505b506113f7565b5050565b600061138f83611a58565b821061139a57600080fd5b600660008473ffffffffffffffffffffffffffffffffffffffff1673ffffffffffffffffffffffffffffffffffffffff16815260200190815260200160002082815481106113e457fe5b9060005260206000200154905092915050565b505050565b611404611e0c565b611476576040517f08c379a00000000000000000000000000000000000000000000000000000000081526004018080602001828103825260208152602001807f4f776e61626c653a2063616c6c6572206973206e6f7420746865206f776e657281525060200191505060405180910390fd5b600060149054906101000a900460ff166114f8576040517f08c379a00000000000000000000000000000000000000000000000000000000081526004018080602001828103825260148152602001807f5061757361626c653a206e6f742070617573656400000000000000000000000081525060200191505060405180910390fd5b60008060146101000a81548160ff0219169083151502179055507f5db9ee0a495bf2e6ff9c91a7834c1ba4fdd244a5e8aa4e537bd38aeae4b073aa33604051808273ffffffffffffffffffffffffffffffffffffffff1673ffffffffffffffffffffffffffffffffffffffff16815260200191505060405180910390a1565b61157f61462b565b601460008473ffffffffffffffffffffffffffffffffffffffff1673ffffffffffffffffffffffffffffffffffffffff1681526020019081526020016000206040518060600160405290816000820160009054906101000a900473ffffffffffffffffffffffffffffffffffffffff1673ffffffffffffffffffffffffffffffffffffffff1673ffffffffffffffffffffffffffffffffffffffff1681526020016000820160149054906101000a900460ff161515151581526020016000820160159054906101000a900460ff1660ff1660ff1681525050905080602001516116d0576040517f08c379a00000000000000000000000000000000000000000000000000000000081526004018080602001828103825260168152602001807f536f6c7574696f6e20646f65736e27742065786973740000000000000000000081525060200191505060405180910390fd5b6116da83836127a7565b505050565b6116fa8383836040518060200160405280600081525061203f565b505050565b6000611709611311565b821061171457600080fd5b6008828154811061172157fe5b90600052602060002001549050919050565b60008060149054906101000a900460ff16905090565b6000611753614667565b60405180604001604052808760006002811061176b57fe5b602002015181526020018760016002811061178257fe5b6020020151815250816000018190525060405180604001604052806040518060400160405280886000600281106117b557fe5b60200201516000600281106117c657fe5b60200201518152602001886000600281106117dd57fe5b60200201516001600281106117ee57fe5b6020020151815250815260200160405180604001604052808860016002811061181357fe5b602002015160006002811061182457fe5b602002015181526020018860016002811061183b57fe5b602002015160016002811061184c57fe5b6020020151815250815250816020018190525060405180604001604052808560006002811061187757fe5b602002015181526020018560016002811061188e57fe5b60200201518152508160400181905250606060026040519080825280602002602001820160405280156118d05781602001602082028038833980820191505090505b50905060008090505b6002811015611918578481600281106118ee57fe5b60200201518282815181106118ff57fe5b60200260200101818152505080806001019150506118d9565b5060006119258284612838565b1415611981577f3f3cfdb26fb5f9f1786ab4f1a1f9cd4c0b5e726cbdfc26e495261731aad44e3960405180806020018281038252602281526020018061496c6022913960400191505060405180910390a1600192505050611988565b6000925050505b949350505050565b6000806002600084815260200190815260200160002060009054906101000a900473ffffffffffffffffffffffffffffffffffffffff169050600073ffffffffffffffffffffffffffffffffffffffff168173ffffffffffffffffffffffffffffffffffffffff161415611a4f576040517f08c379a00000000000000000000000000000000000000000000000000000000081526004018080602001828103825260298152602001806149436029913960400191505060405180910390fd5b80915050919050565b60008073ffffffffffffffffffffffffffffffffffffffff168273ffffffffffffffffffffffffffffffffffffffff161415611adf576040517f08c379a000000000000000000000000000000000000000000000000000000000815260040180806020018281038252602a815260200180614919602a913960400191505060405180910390fd5b611b26600460008473ffffffffffffffffffffffffffffffffffffffff1673ffffffffffffffffffffffffffffffffffffffff1681526020019081526020016000206129aa565b9050919050565b611b35611e0c565b611ba7576040517f08c379a00000000000000000000000000000000000000000000000000000000081526004018080602001828103825260208152602001807f4f776e61626c653a2063616c6c6572206973206e6f7420746865206f776e657281525060200191505060405180910390fd5b600073ffffffffffffffffffffffffffffffffffffffff166000809054906101000a900473ffffffffffffffffffffffffffffffffffffffff1673ffffffffffffffffffffffffffffffffffffffff167f8be0079c531659141344cd1fd0a4f28419497f9722a3daafe3b4186f6b6457e060405160405180910390a360008060006101000a81548173ffffffffffffffffffffffffffffffffffffffff021916908373ffffffffffffffffffffffffffffffffffffffff160217905550565b611c6e611e0c565b611ce0576040517f08c379a00000000000000000000000000000000000000000000000000000000081526004018080602001828103825260208152602001807f4f776e61626c653a2063616c6c6572206973206e6f7420746865206f776e657281525060200191505060405180910390fd5b600060149054906101000a900460ff1615611d63576040517f08c379a00000000000000000000000000000000000000000000000000000000081526004018080602001828103825260108152602001807f5061757361626c653a207061757365640000000000000000000000000000000081525060200191505060405180910390fd5b6001600060146101000a81548160ff0219169083151502179055507f62e78cea01bee320cd4e420270b5ea74000d11b0c9f74754ebdbfc544b05a25833604051808273ffffffffffffffffffffffffffffffffffffffff1673ffffffffffffffffffffffffffffffffffffffff16815260200191505060405180910390a1565b60008060009054906101000a900473ffffffffffffffffffffffffffffffffffffffff16905090565b60008060009054906101000a900473ffffffffffffffffffffffffffffffffffffffff1673ffffffffffffffffffffffffffffffffffffffff163373ffffffffffffffffffffffffffffffffffffffff1614905090565b606060108054600181600116156101000203166002900480601f016020809104026020016040519081016040528092919081815260200182805460018160011615610100020316600290048015611efb5780601f10611ed057610100808354040283529160200191611efb565b820191906000526020600020905b815481529060010190602001808311611ede57829003601f168201915b5050505050905090565b3373ffffffffffffffffffffffffffffffffffffffff168273ffffffffffffffffffffffffffffffffffffffff161415611f3e57600080fd5b80600560003373ffffffffffffffffffffffffffffffffffffffff1673ffffffffffffffffffffffffffffffffffffffff16815260200190815260200160002060008473ffffffffffffffffffffffffffffffffffffffff1673ffffffffffffffffffffffffffffffffffffffff16815260200190815260200160002060006101000a81548160ff0219169083151502179055508173ffffffffffffffffffffffffffffffffffffffff163373ffffffffffffffffffffffffffffffffffffffff167f17307eab39ab6107e8899845ad3d59bd9653f200f220920489ca2b5937696c3183604051808215151515815260200191505060405180910390a35050565b61204a84848461131e565b612056848484846129b8565b61205f57600080fd5b50505050565b60606120708261267c565b6120c5576040517f08c379a000000000000000000000000000000000000000000000000000000000815260040180806020018281038252602f815260200180614a0f602f913960400191505060405180910390fd5b601260008381526020019081526020016000208054600181600116156101000203166002900480601f01602080910402602001604051908101604052809291908181526020018280546001816001161561010002031660029004801561216c5780601f106121415761010080835404028352916020019161216c565b820191906000526020600020905b81548152906001019060200180831161214f57829003601f168201915b50505050509050919050565b606060118054600181600116156101000203166002900480601f0160208091040260200160405190810160405280929190818152602001828054600181600116156101000203166002900480156122105780601f106121e557610100808354040283529160200191612210565b820191906000526020600020905b8154815290600101906020018083116121f357829003601f168201915b5050505050905090565b6000600560008473ffffffffffffffffffffffffffffffffffffffff1673ffffffffffffffffffffffffffffffffffffffff16815260200190815260200160002060008373ffffffffffffffffffffffffffffffffffffffff1673ffffffffffffffffffffffffffffffffffffffff16815260200190815260200160002060009054906101000a900460ff16905092915050565b6122b6611e0c565b612328576040517f08c379a00000000000000000000000000000000000000000000000000000000081526004018080602001828103825260208152602001807f4f776e61626c653a2063616c6c6572206973206e6f7420746865206f776e657281525060200191505060405180910390fd5b61233181612ba1565b50565b600061234285858585612ce5565b9050600015156013600083815260200190815260200160002060000160149054906101000a900460ff161515146123e1576040517f08c379a00000000000000000000000000000000000000000000000000000000081526004018080602001828103825260178152602001807f536f6c7574696f6e20616c72656164792065786973747300000000000000000081525060200191505060405180910390fd5b60006123ef86868686611749565b905080612464576040517f08c379a00000000000000000000000000000000000000000000000000000000081526004018080602001828103825260138152602001807f536f6c7574696f6e20697320696e76616c69640000000000000000000000000081525060200191505060405180910390fd5b61246c61462b565b60405180606001604052803373ffffffffffffffffffffffffffffffffffffffff168152602001600115158152602001600160ff168152509050806013600085815260200190815260200160002060008201518160000160006101000a81548173ffffffffffffffffffffffffffffffffffffffff021916908373ffffffffffffffffffffffffffffffffffffffff16021790555060208201518160000160146101000a81548160ff02191690831515021790555060408201518160000160156101000a81548160ff021916908360ff16021790555090505080601460003373ffffffffffffffffffffffffffffffffffffffff1673ffffffffffffffffffffffffffffffffffffffff16815260200190815260200160002060008201518160000160006101000a81548173ffffffffffffffffffffffffffffffffffffffff021916908373ffffffffffffffffffffffffffffffffffffffff16021790555060208201518160000160146101000a81548160ff02191690831515021790555060408201518160000160156101000a81548160ff021916908360ff1602179055509050507f209e782baeeecf4956303cb3e836fdf3f7279e6729ebccf2d309c292aedd3aeb33604051808273ffffffffffffffffffffffffffffffffffffffff1673ffffffffffffffffffffffffffffffffffffffff16815260200191505060405180910390a150505050505050565b6000806002600084815260200190815260200160002060009054906101000a900473ffffffffffffffffffffffffffffffffffffffff169050600073ffffffffffffffffffffffffffffffffffffffff168173ffffffffffffffffffffffffffffffffffffffff161415915050919050565b6000806126fa83611990565b90508073ffffffffffffffffffffffffffffffffffffffff168473ffffffffffffffffffffffffffffffffffffffff16148061276957508373ffffffffffffffffffffffffffffffffffffffff166127518461109d565b73ffffffffffffffffffffffffffffffffffffffff16145b8061277a5750612779818561221a565b5b91505092915050565b61278e838383612df8565b6127988382613053565b6127a282826131f1565b505050565b6127af611e0c565b612821576040517f08c379a00000000000000000000000000000000000000000000000000000000081526004018080602001828103825260208152602001807f4f776e61626c653a2063616c6c6572206973206e6f7420746865206f776e657281525060200191505060405180910390fd5b61282b82826132b8565b612834816132d9565b5050565b6000807f30644e72e131a029b85045b68181585d2833e84879b9709143e1f593f0000001905061286661469b565b61286e613419565b905080608001515160018651011461288557600080fd5b61288d6146e3565b6040518060400160405280600081526020016000815250905060008090505b865181101561292357838782815181106128c257fe5b6020026020010151106128d457600080fd5b6129148261290f856080015160018501815181106128ee57fe5b60200260200101518a858151811061290257fe5b6020026020010151613867565b6138fb565b915080806001019150506128ac565b5061294681836080015160008151811061293957fe5b60200260200101516138fb565b905061298c8560000151866020015161295e846139ae565b85604001516129708a604001516139ae565b876060015161298289600001516139ae565b8960200151613a48565b61299c57600193505050506129a4565b600093505050505b92915050565b600081600001549050919050565b60006129d98473ffffffffffffffffffffffffffffffffffffffff16613bac565b6129e65760019050612b99565b60008473ffffffffffffffffffffffffffffffffffffffff1663150b7a02338887876040518563ffffffff1660e01b8152600401808573ffffffffffffffffffffffffffffffffffffffff1673ffffffffffffffffffffffffffffffffffffffff1681526020018473ffffffffffffffffffffffffffffffffffffffff1673ffffffffffffffffffffffffffffffffffffffff16815260200183815260200180602001828103825283818151815260200191508051906020019080838360005b83811015612ac1578082015181840152602081019050612aa6565b50505050905090810190601f168015612aee5780820380516001836020036101000a031916815260200191505b5095505050505050602060405180830381600087803b158015612b1057600080fd5b505af1158015612b24573d6000803e3d6000fd5b505050506040513d6020811015612b3a57600080fd5b8101908080519060200190929190505050905063150b7a0260e01b7bffffffffffffffffffffffffffffffffffffffffffffffffffffffff1916817bffffffffffffffffffffffffffffffffffffffffffffffffffffffff1916149150505b949350505050565b600073ffffffffffffffffffffffffffffffffffffffff168173ffffffffffffffffffffffffffffffffffffffff161415612c27576040517f08c379a00000000000000000000000000000000000000000000000000000000081526004018080602001828103825260268152602001806148976026913960400191505060405180910390fd5b8073ffffffffffffffffffffffffffffffffffffffff166000809054906101000a900473ffffffffffffffffffffffffffffffffffffffff1673ffffffffffffffffffffffffffffffffffffffff167f8be0079c531659141344cd1fd0a4f28419497f9722a3daafe3b4186f6b6457e060405160405180910390a3806000806101000a81548173ffffffffffffffffffffffffffffffffffffffff021916908373ffffffffffffffffffffffffffffffffffffffff16021790555050565b600080858585856040516020018085600260200280838360005b83811015612d1a578082015181840152602081019050612cff565b505050509050018460026000925b81841015612d6e5782846020020151600260200280838360005b83811015612d5d578082015181840152602081019050612d42565b505050509050019260010192612d28565b9250505083600260200280838360005b83811015612d99578082015181840152602081019050612d7e565b5050505090500182600260200280838360005b83811015612dc7578082015181840152602081019050612dac565b5050505090500194505050505060405160208183030381529060405280519060200120905080915050949350505050565b8273ffffffffffffffffffffffffffffffffffffffff16612e1882611990565b73ffffffffffffffffffffffffffffffffffffffff1614612e84576040517f08c379a00000000000000000000000000000000000000000000000000000000081526004018080602001828103825260298152602001806149e66029913960400191505060405180910390fd5b600073ffffffffffffffffffffffffffffffffffffffff168273ffffffffffffffffffffffffffffffffffffffff161415612f0a576040517f08c379a00000000000000000000000000000000000000000000000000000000081526004018080602001828103825260248152602001806148bd6024913960400191505060405180910390fd5b612f1381613bbf565b612f5a600460008573ffffffffffffffffffffffffffffffffffffffff1673ffffffffffffffffffffffffffffffffffffffff168152602001908152602001600020613c7d565b612fa1600460008473ffffffffffffffffffffffffffffffffffffffff1673ffffffffffffffffffffffffffffffffffffffff168152602001908152602001600020613ca0565b816002600083815260200190815260200160002060006101000a81548173ffffffffffffffffffffffffffffffffffffffff021916908373ffffffffffffffffffffffffffffffffffffffff160217905550808273ffffffffffffffffffffffffffffffffffffffff168473ffffffffffffffffffffffffffffffffffffffff167fddf252ad1be2c89b69c2b068fc378daa952ba7f163c4a11628f55a4df523b3ef60405160405180910390a4505050565b60006130ab6001600660008673ffffffffffffffffffffffffffffffffffffffff1673ffffffffffffffffffffffffffffffffffffffff16815260200190815260200160002080549050613cb690919063ffffffff16565b9050600060076000848152602001908152602001600020549050818114613198576000600660008673ffffffffffffffffffffffffffffffffffffffff1673ffffffffffffffffffffffffffffffffffffffff168152602001908152602001600020838154811061311857fe5b9060005260206000200154905080600660008773ffffffffffffffffffffffffffffffffffffffff1673ffffffffffffffffffffffffffffffffffffffff168152602001908152602001600020838154811061317057fe5b9060005260206000200181905550816007600083815260200190815260200160002081905550505b600660008573ffffffffffffffffffffffffffffffffffffffff1673ffffffffffffffffffffffffffffffffffffffff1681526020019081526020016000208054809190600190036131ea91906146fd565b5050505050565b600660008373ffffffffffffffffffffffffffffffffffffffff1673ffffffffffffffffffffffffffffffffffffffff168152602001908152602001600020805490506007600083815260200190815260200160002081905550600660008373ffffffffffffffffffffffffffffffffffffffff1673ffffffffffffffffffffffffffffffffffffffff1681526020019081526020016000208190806001815401808255809150509060018203906000526020600020016000909192909190915055505050565b6132c28282613d3f565b6132cc82826131f1565b6132d581613f57565b5050565b6132e28161267c565b613337576040517f08c379a000000000000000000000000000000000000000000000000000000000815260040180806020018281038252602c8152602001806149ba602c913960400191505060405180910390fd5b606061334282613fa3565b905060606133ea60118054600181600116156101000203166002900480601f0160208091040260200160405190810160405280929190818152602001828054600181600116156101000203166002900480156133df5780601f106133b4576101008083540402835291602001916133df565b820191906000526020600020905b8154815290600101906020018083116133c257829003601f168201915b5050505050836140d0565b905080601260008581526020019081526020016000209080519060200190613413929190614729565b50505050565b61342161469b565b60405180604001604052807f296a9c3fad304e4eae4645168616630e9d0dad79acf4bac6bd1e34958329720b81526020017f169c183fb3833014fb37f3dcb16e5414dc5d6524a42c37980eed0ad1e830defe8152508160000181905250604051806040016040528060405180604001604052807f25f03f8e3c99054a9cc1357d523f4807a921c0b756abdcb4c72a74099d72869881526020017f2dea30510af33ce3da5ebfe6fcd6e0a5a613f1f638d15a296ffb495c9103ece2815250815260200160405180604001604052807f2682b76b5c5dbe9a58d899163f996dbcd9d2e35a7a5baff22110eea01398509f81526020017f0ea122a7751705bea284e3741bdcc9289e021a849d0217374f58b20568caa78d8152508152508160200181905250604051806040016040528060405180604001604052807f29aea00561d7ce4e5547179476fef14397f224d9c54aa05a649ce2c012fff96f81526020017f0b1dfc919516eed0d3bb2f599993dfb86145da396bbbd1281b2f21caeaac3d08815250815260200160405180604001604052807f0b336049cb75b2147c493077b935073897fef449f9b6ab7361a0e5ce07bc2be681526020017f278cf46d1d3d860097c7ca95cb04c16f92a93d55c7a88d311313fb2b3242aa1d8152508152508160400181905250604051806040016040528060405180604001604052807f22edfc8be0527347fc3d7d7aa1453886fa7d6dc3b20404c7bbfe3a78537d5c9c81526020017f2a559247434d3f67c35517ddce965ddfd777f666cde5d091471a0385a6514bb5815250815260200160405180604001604052807f051b9044679872009216ad45f5656325705fef1466f0cf08176addc8215d0b4381526020017f20cbeda687e4494f0406a6b1a3c00aca1bc0c2a4eed7c663b91afcd0c9ed868a8152508152508160600181905250600360405190808252806020026020018201604052801561370857816020015b6136f56147a9565b8152602001906001900390816136ed5790505b50816080018190525060405180604001604052807f11d352a1a0664fcd44cc826fc260f0b408aa8b22daf0fbae287987358fb8562781526020017f271193d347695386b583479568555e812c9b974473ee6c4b8e5cb289b4b11ce8815250816080015160008151811061377757fe5b602002602001018190525060405180604001604052807f0dfa77324154cd1473435d1139286a7f3f584a92ea08761a77ccfaa7ac70ed5a81526020017f25b93ec743fa392979f4ff46cdf065ca7fe9401e450a6f62482cce660001fd7f81525081608001516001815181106137e857fe5b602002602001018190525060405180604001604052807f2304d6fce7038052055df456db9799c091eec058e687393bb3f7f420e403919181526020017f2a7fcc684db387954445d0da55c471ccc3d19579acf41d570969f88b66d06f87815250816080015160028151811061385957fe5b602002602001018190525090565b61386f6146e3565b6138776147c3565b83600001518160006003811061388957fe5b6020020181815250508360200151816001600381106138a457fe5b60200201818152505082816002600381106138bb57fe5b6020020181815250506000606083608084600060076107d05a03f1905080600081146138e6576138e8565bfe5b50806138f357600080fd5b505092915050565b6139036146e3565b61390b6147e5565b83600001518160006004811061391d57fe5b60200201818152505083602001518160016004811061393857fe5b60200201818152505082600001518160026004811061395357fe5b60200201818152505082602001518160036004811061396e57fe5b602002018181525050600060608360c084600060066107d05a03f1905080600081146139995761399b565bfe5b50806139a657600080fd5b505092915050565b6139b66146e3565b60007f30644e72e131a029b85045b68181585d97816a916871ca8d3c208c16d87cfd479050600083600001511480156139f3575060008360200151145b15613a17576040518060400160405280600081526020016000815250915050613a43565b60405180604001604052808460000151815260200182856020015181613a3957fe5b0683038152509150505b919050565b600060606004604051908082528060200260200182016040528015613a8757816020015b613a746147a9565b815260200190600190039081613a6c5790505b50905060606004604051908082528060200260200182016040528015613ac757816020015b613ab4614807565b815260200190600190039081613aac5790505b5090508a82600081518110613ad857fe5b60200260200101819052508882600181518110613af157fe5b60200260200101819052508682600281518110613b0a57fe5b60200260200101819052508482600381518110613b2357fe5b60200260200101819052508981600081518110613b3c57fe5b60200260200101819052508781600181518110613b5557fe5b60200260200101819052508581600281518110613b6e57fe5b60200260200101819052508381600381518110613b8757fe5b6020026020010181905250613b9c8282614114565b9250505098975050505050505050565b600080823b905060008111915050919050565b600073ffffffffffffffffffffffffffffffffffffffff166003600083815260200190815260200160002060009054906101000a900473ffffffffffffffffffffffffffffffffffffffff1673ffffffffffffffffffffffffffffffffffffffff1614613c7a5760006003600083815260200190815260200160002060006101000a81548173ffffffffffffffffffffffffffffffffffffffff021916908373ffffffffffffffffffffffffffffffffffffffff1602179055505b50565b613c9560018260000154613cb690919063ffffffff16565b816000018190555050565b6001816000016000828254019250508190555050565b600082821115613d2e576040517f08c379a000000000000000000000000000000000000000000000000000000000815260040180806020018281038252601e8152602001807f536166654d6174683a207375627472616374696f6e206f766572666c6f77000081525060200191505060405180910390fd5b600082840390508091505092915050565b600073ffffffffffffffffffffffffffffffffffffffff168273ffffffffffffffffffffffffffffffffffffffff161415613de2576040517f08c379a00000000000000000000000000000000000000000000000000000000081526004018080602001828103825260208152602001807f4552433732313a206d696e7420746f20746865207a65726f206164647265737381525060200191505060405180910390fd5b613deb8161267c565b15613e5e576040517f08c379a000000000000000000000000000000000000000000000000000000000815260040180806020018281038252601c8152602001807f4552433732313a20746f6b656e20616c7265616479206d696e7465640000000081525060200191505060405180910390fd5b816002600083815260200190815260200160002060006101000a81548173ffffffffffffffffffffffffffffffffffffffff021916908373ffffffffffffffffffffffffffffffffffffffff160217905550613ef7600460008473ffffffffffffffffffffffffffffffffffffffff1673ffffffffffffffffffffffffffffffffffffffff168152602001908152602001600020613ca0565b808273ffffffffffffffffffffffffffffffffffffffff16600073ffffffffffffffffffffffffffffffffffffffff167fddf252ad1be2c89b69c2b068fc378daa952ba7f163c4a11628f55a4df523b3ef60405160405180910390a45050565b6008805490506009600083815260200190815260200160002081905550600881908060018154018082558091505090600182039060005260206000200160009091929091909150555050565b60606000821415613feb576040518060400160405280600181526020017f300000000000000000000000000000000000000000000000000000000000000081525090506140cb565b600082905060005b60008214614015578080600101915050600a828161400d57fe5b049150613ff3565b6060816040519080825280601f01601f19166020018201604052801561404a5781602001600182028038833980820191505090505b50905060006001830390505b600086146140c357600a868161406857fe5b0660300160f81b8282806001900393508151811061408257fe5b60200101907effffffffffffffffffffffffffffffffffffffffffffffffffffffffffffff1916908160001a905350600a86816140bb57fe5b049550614056565b819450505050505b919050565b606061410c8383604051806020016040528060008152506040518060200160405280600081525060405180602001604052806000815250614369565b905092915050565b6000815183511461412457600080fd5b60008351905060006006820290506060816040519080825280602002602001820160405280156141635781602001602082028038833980820191505090505b50905060008090505b838110156143095786818151811061418057fe5b60200260200101516000015182600060068402018151811061419e57fe5b6020026020010181815250508681815181106141b657fe5b6020026020010151602001518260016006840201815181106141d457fe5b6020026020010181815250508581815181106141ec57fe5b60200260200101516000015160006002811061420457fe5b602002015182600260068402018151811061421b57fe5b60200260200101818152505085818151811061423357fe5b60200260200101516000015160016002811061424b57fe5b602002015182600360068402018151811061426257fe5b60200260200101818152505085818151811061427a57fe5b60200260200101516020015160006002811061429257fe5b60200201518260046006840201815181106142a957fe5b6020026020010181815250508581815181106142c157fe5b6020026020010151602001516001600281106142d957fe5b60200201518260056006840201815181106142f057fe5b602002602001018181525050808060010191505061416c565b5061431261482d565b60006020826020860260208601600060086107d05a03f1905080600081146143395761433b565bfe5b508061434657600080fd5b60008260006001811061435557fe5b602002015114159550505050505092915050565b6060808690506060869050606086905060608690506060869050606081518351855187518951010101016040519080825280601f01601f1916602001820160405280156143c55781602001600182028038833980820191505090505b509050606081905060008090506000809050600090505b885181101561444a578881815181106143f157fe5b602001015160f81c60f81b83838060010194508151811061440e57fe5b60200101907effffffffffffffffffffffffffffffffffffffffffffffffffffffffffffff1916908160001a90535080806001019150506143dc565b600090505b87518110156144bd5787818151811061446457fe5b602001015160f81c60f81b83838060010194508151811061448157fe5b60200101907effffffffffffffffffffffffffffffffffffffffffffffffffffffffffffff1916908160001a905350808060010191505061444f565b600090505b8651811015614530578681815181106144d757fe5b602001015160f81c60f81b8383806001019450815181106144f457fe5b60200101907effffffffffffffffffffffffffffffffffffffffffffffffffffffffffffff1916908160001a90535080806001019150506144c2565b600090505b85518110156145a35785818151811061454a57fe5b602001015160f81c60f81b83838060010194508151811061456757fe5b60200101907effffffffffffffffffffffffffffffffffffffffffffffffffffffffffffff1916908160001a9053508080600101915050614535565b600090505b8451811015614616578481815181106145bd57fe5b602001015160f81c60f81b8383806001019450815181106145da57fe5b60200101907effffffffffffffffffffffffffffffffffffffffffffffffffffffffffffff1916908160001a90535080806001019150506145a8565b82995050505050505050505095945050505050565b6040518060600160405280600073ffffffffffffffffffffffffffffffffffffffff168152602001600015158152602001600060ff1681525090565b60405180610100016040528061467b6147a9565b8152602001614688614807565b81526020016146956147a9565b81525090565b604051806101e001604052806146af6147a9565b81526020016146bc614807565b81526020016146c9614807565b81526020016146d6614807565b8152602001606081525090565b604051806040016040528060008152602001600081525090565b81548183558181111561472457818360005260206000209182019101614723919061484f565b5b505050565b828054600181600116156101000203166002900490600052602060002090601f016020900481019282601f1061476a57805160ff1916838001178555614798565b82800160010185558215614798579182015b8281111561479757825182559160200191906001019061477c565b5b5090506147a5919061484f565b5090565b604051806040016040528060008152602001600081525090565b6040518060600160405280600390602082028038833980820191505090505090565b6040518060800160405280600490602082028038833980820191505090505090565b604051806080016040528061481a614874565b8152602001614827614874565b81525090565b6040518060200160405280600190602082028038833980820191505090505090565b61487191905b8082111561486d576000816000905550600101614855565b5090565b90565b604051806040016040528060029060208202803883398082019150509050509056fe4f776e61626c653a206e6577206f776e657220697320746865207a65726f20616464726573734552433732313a207472616e7366657220746f20746865207a65726f20616464726573734552433732313a20617070726f76652063616c6c6572206973206e6f74206f776e6572206e6f7220617070726f76656420666f7220616c6c4552433732313a2062616c616e636520717565727920666f7220746865207a65726f20616464726573734552433732313a206f776e657220717565727920666f72206e6f6e6578697374656e7420746f6b656e5472616e73616374696f6e207375636365737366756c6c792076657269666965642e4552433732313a20617070726f76656420717565727920666f72206e6f6e6578697374656e7420746f6b656e4552433732314d657461646174613a2055524920736574206f66206e6f6e6578697374656e7420746f6b656e4552433732313a207472616e73666572206f6620746f6b656e2074686174206973206e6f74206f776e4552433732314d657461646174613a2055524920717565727920666f72206e6f6e6578697374656e7420746f6b656e4552433732313a20617070726f76616c20746f2063757272656e74206f776e6572a165627a7a72305820d5500bf6bf514655b586ec09c625b3a6d713e37eef9e49b3c0fd1534bc9fa54d002968747470733a2f2f73332d75732d776573742d322e616d617a6f6e6177732e636f6d2f756461636974792d626c6f636b636861696e2f63617073746f6e652f",
  "source": "pragma solidity >=0.4.21 <0.6.0;\n\nimport \"./ERC721Mintable.sol\";\nimport \"./Verifier.sol\";\n\n// TODO define a contract call to the zokrates generated solidity contract <Verifier> or <renamedVerifier>\n\n// TODO define another contract named SolnSquareVerifier that inherits from your ERC721Mintable class\n\n// TODO define a solutions struct that can hold an index & an address\n\n// TODO define an array of the above struct\n\n// TODO define a mapping to store unique solutions submitted\n\n// TODO Create an event to emit when a solution is added\n\n// TODO Create a function to add the solutions to the array and emit the event\n\n// TODO Create a function to mint new NFT only after the solution has been verified\n//  - make sure the solution is unique (has not been used before)\n//  - make sure you handle address to, uint256 tokenIdmetadata as well as tokenSuplly\n\ncontract SolnSquareVerifier is CustomERC721Token, Verifier {\n\n    struct Solution {\n        address solutionAddress;\n        bool exist;\n        uint8 exist8;\n    }\n\n    mapping(bytes32 => Solution) solutions;\n    mapping(address => Solution) submitedSolutions;\n\n    event SolutionAdded(address solutionAddress);\n\n    constructor(string memory name, string memory symbol)\n        CustomERC721Token(name, symbol) public {\n    }\n\n    function addSolution(uint256[2] memory a, uint256[2][2] memory b, uint256[2] memory c, uint256[2] memory input) public {\n        // Check solution uniqueness\n        bytes32 solutionHash = createSolutionHash(a, b, c, input);\n        require(solutions[solutionHash].exist == false, \"Solution already exists\");\n\n        // Checks solution using Zokrates\n        bool solutionOk = verifyTx(a, b, c, input);\n        require(solutionOk, \"Solution is invalid\");\n\n        // Add solution\n        Solution memory newSolution = Solution(msg.sender, true, 1);\n        solutions[solutionHash] = newSolution;\n        submitedSolutions[msg.sender] = newSolution;\n\n        // Emit event\n        emit SolutionAdded(msg.sender);\n    }\n\n    function mint(address to, uint256 tokenId) public {\n        Solution memory solution = submitedSolutions[to];\n        require(solution.exist, \"Solution doesn't exist\");\n        super.mint(to, tokenId);\n    }\n\n    function createSolutionHash(uint256[2] memory a, uint256[2][2] memory b, uint256[2] memory c, uint256[2] memory input)\n            internal pure returns (bytes32) {\n        bytes32 solutionHash = keccak256(abi.encodePacked(a, b, c, input));\n        return solutionHash;\n    }\n}\n\n\n\n",
  "sourcePath": "/Users/jsantuci/Study/udacity-blockchain/blockchain_capstone/eth-contracts/contracts/SolnSquareVerifier.sol",
  "compiler": {
    "name": "solc",
    "version": "0.5.8+commit.23d335f2.Emscripten.clang"
  },
  "schemaVersion": "3.0.11",
  "updatedAt": "2019-09-30T21:11:09.295Z",
  "devdoc": {
    "methods": {
      "baseTokenURI()": {
        "details": "Gets the base token URI.",
        "return": "string representing the token symbol"
      },
      "isApprovedForAll(address,address)": {
        "details": "Tells whether an operator is approved by a given owner",
        "params": {
          "operator": "operator address which you want to query the approval of",
          "owner": "owner address which you want to query the approval of"
        },
        "return": "bool whether the given operator is approved by the given owner"
      },
      "isOwner()": {
        "details": "Returns true if the caller is the current owner."
      },
      "name()": {
        "details": "Gets the token name.",
        "return": "string representing the token name"
      },
      "owner()": {
        "details": "Returns the address of the current owner."
      },
      "pause()": {
        "details": "Called by a pauser to pause, triggers stopped state."
      },
      "paused()": {
        "details": "Returns true if the contract is paused, and false otherwise."
      },
      "renounceOwnership()": {
        "details": "Leaves the contract without owner. It will not be possible to call `onlyOwner` functions anymore. Can only be called by the current owner.     * > Note: Renouncing ownership will leave the contract without an owner, thereby removing any functionality that is only available to the owner."
      },
      "setApprovalForAll(address,bool)": {
        "details": "Sets or unsets the approval of a given operator An operator is allowed to transfer all tokens of the sender on their behalf",
        "params": {
          "approved": "representing the status of the approval to be set",
          "to": "operator address to set the approval"
        }
      },
      "supportsInterface(bytes4)": {
        "details": "implement supportsInterface(bytes4) using a lookup table"
      },
      "symbol()": {
        "details": "Gets the token symbol.",
        "return": "string representing the token symbol"
      },
      "tokenByIndex(uint256)": {
        "details": "Gets the token ID at a given index of all the tokens in this contract Reverts if the index is greater or equal to the total number of tokens",
        "params": {
          "index": "uint256 representing the index to be accessed of the tokens list"
        },
        "return": "uint256 token ID at the given index of the tokens list"
      },
      "tokenOfOwnerByIndex(address,uint256)": {
        "details": "Gets the token ID at a given index of the tokens list of the requested owner",
        "params": {
          "index": "uint256 representing the index to be accessed of the requested tokens list",
          "owner": "address owning the tokens list to be accessed"
        },
        "return": "uint256 token ID at the given index of the tokens list owned by the requested address"
      },
      "tokenURI(uint256)": {
        "details": "Returns an URI for a given token ID. Throws if the token ID does not exist. May return an empty string.",
        "params": {
          "tokenId": "uint256 ID of the token to query"
        }
      },
      "totalSupply()": {
        "details": "Gets the total amount of tokens stored by the contract",
        "return": "uint256 representing the total amount of tokens"
      },
      "transferOwnership(address)": {
        "details": "Transfers ownership of the contract to a new account (`newOwner`). Can only be called by the current owner."
      },
      "unpause()": {
        "details": "Called by a pauser to unpause, returns to normal state."
      }
    }
  },
  "userdoc": {
    "methods": {}
  }
}